{
  "contractName": "Forwarder",
  "abi": [
    {
      "constant": true,
      "inputs": [],
      "name": "parentAddress",
      "outputs": [
        {
          "name": "",
          "type": "address"
        }
      ],
      "payable": false,
      "stateMutability": "view",
      "type": "function"
    },
    {
      "constant": false,
      "inputs": [
        {
          "name": "tokenContractAddress",
          "type": "address"
        }
      ],
      "name": "flushTokens",
      "outputs": [],
      "payable": false,
      "stateMutability": "nonpayable",
      "type": "function"
    },
    {
      "constant": false,
      "inputs": [],
      "name": "flush",
      "outputs": [],
      "payable": false,
      "stateMutability": "nonpayable",
      "type": "function"
    },
    {
      "inputs": [],
      "payable": false,
      "stateMutability": "nonpayable",
      "type": "constructor"
    },
    {
      "payable": true,
      "stateMutability": "payable",
      "type": "fallback"
    },
    {
      "anonymous": false,
      "inputs": [
        {
          "indexed": false,
          "name": "from",
          "type": "address"
        },
        {
          "indexed": false,
          "name": "value",
          "type": "uint256"
        },
        {
          "indexed": false,
          "name": "data",
          "type": "bytes"
        }
      ],
      "name": "ForwarderDeposited",
      "type": "event"
    },
    {
      "anonymous": false,
      "inputs": [
        {
          "indexed": false,
          "name": "tokenContractAddress",
          "type": "address"
        },
        {
          "indexed": false,
          "name": "value",
          "type": "uint256"
        }
      ],
      "name": "TokensFlushed",
      "type": "event"
    }
  ],
  "bytecode": "0x6060604052341561000f57600080fd5b336000806101000a81548173ffffffffffffffffffffffffffffffffffffffff021916908373ffffffffffffffffffffffffffffffffffffffff1602179055506105568061005e6000396000f300606060405260043610610056576000357c0100000000000000000000000000000000000000000000000000000000900463ffffffff168062821de3146101555780633ef13367146101aa5780636b9f96ea146101e3575b6000809054906101000a900473ffffffffffffffffffffffffffffffffffffffff1673ffffffffffffffffffffffffffffffffffffffff16346000366040518083838082843782019150509250505060006040518083038185876187965a03f19250505015156100c557600080fd5b7f69b31548dea9b3b707b4dff357d326e3e9348b24e7a6080a218a6edeeec48f9b3334600036604051808573ffffffffffffffffffffffffffffffffffffffff1673ffffffffffffffffffffffffffffffffffffffff16815260200184815260200180602001828103825284848281815260200192508082843782019150509550505050505060405180910390a1005b341561016057600080fd5b6101686101f8565b604051808273ffffffffffffffffffffffffffffffffffffffff1673ffffffffffffffffffffffffffffffffffffffff16815260200191505060405180910390f35b34156101b557600080fd5b6101e1600480803573ffffffffffffffffffffffffffffffffffffffff1690602001909190505061021d565b005b34156101ee57600080fd5b6101f66104b5565b005b6000809054906101000a900473ffffffffffffffffffffffffffffffffffffffff1681565b60008060008060009054906101000a900473ffffffffffffffffffffffffffffffffffffffff1673ffffffffffffffffffffffffffffffffffffffff163373ffffffffffffffffffffffffffffffffffffffff1614151561027d57600080fd5b8392503091508273ffffffffffffffffffffffffffffffffffffffff166370a08231836000604051602001526040518263ffffffff167c0100000000000000000000000000000000000000000000000000000000028152600401808273ffffffffffffffffffffffffffffffffffffffff1673ffffffffffffffffffffffffffffffffffffffff168152602001915050602060405180830381600087803b151561032657600080fd5b6102c65a03f1151561033757600080fd5b5050506040518051905090506000811415610351576104af565b8273ffffffffffffffffffffffffffffffffffffffff1663a9059cbb6000809054906101000a900473ffffffffffffffffffffffffffffffffffffffff16836000604051602001526040518363ffffffff167c0100000000000000000000000000000000000000000000000000000000028152600401808373ffffffffffffffffffffffffffffffffffffffff1673ffffffffffffffffffffffffffffffffffffffff16815260200182815260200192505050602060405180830381600087803b151561041d57600080fd5b6102c65a03f1151561042e57600080fd5b50505060405180519050151561044357600080fd5b7f9401e4e79c19cbe2bd774cb70a94ba660e6718be1bac1298ab3b07f454a608218482604051808373ffffffffffffffffffffffffffffffffffffffff1673ffffffffffffffffffffffffffffffffffffffff1681526020018281526020019250505060405180910390a15b50505050565b6000809054906101000a900473ffffffffffffffffffffffffffffffffffffffff1673ffffffffffffffffffffffffffffffffffffffff163073ffffffffffffffffffffffffffffffffffffffff163160405160006040518083038185876187965a03f192505050151561052857600080fd5b5600a165627a7a72305820286a01961aba45ea3b39df4f0f3f22986702c2ae1b9a5ab5b0b167df15bd95560029",
  "source": "pragma solidity ^0.4.11;\nimport \"./ERC20Interface.sol\";\n/**\n * Contract that will forward any incoming Ether to its creator\n */\ncontract Forwarder {\n  // Address to which any funds sent to this contract will be forwarded\n  address public parentAddress;\n  event ForwarderDeposited(address from, uint value, bytes data);\n\n  event TokensFlushed(\n    address tokenContractAddress, // The contract address of the token\n    uint value // Amount of token sent\n  );\n\n  /**\n   * Create the contract, and set the destination address to that of the creator\n   */\n  function Forwarder() {\n    parentAddress = msg.sender;\n  }\n\n  /**\n   * Modifier that will execute internal code block only if the sender is a parent of the forwarder contract\n   */\n  modifier onlyParent {\n    if (msg.sender != parentAddress) {\n      throw;\n    }\n    _;\n  }\n\n  /**\n   * Default function; Gets called when Ether is deposited, and forwards it to the destination address\n   */\n  function() payable {\n    if (!parentAddress.call.value(msg.value)(msg.data))\n      throw;\n    // Fire off the deposited event if we can forward it  \n    ForwarderDeposited(msg.sender, msg.value, msg.data);\n  }\n\n  /**\n   * Execute a token transfer of the full balance from the forwarder token to the main wallet contract\n   * @param tokenContractAddress the address of the erc20 token contract\n   */\n  function flushTokens(address tokenContractAddress) onlyParent {\n    ERC20Interface instance = ERC20Interface(tokenContractAddress);\n    var forwarderAddress = address(this);\n    var forwarderBalance = instance.balanceOf(forwarderAddress);\n    if (forwarderBalance == 0) {\n      return;\n    }\n    if (!instance.transfer(parentAddress, forwarderBalance)) {\n      throw;\n    }\n    TokensFlushed(tokenContractAddress, forwarderBalance);\n  }\n\n  /**\n   * It is possible that funds were sent to this address before the contract was deployed.\n   * We can flush those funds to the destination address.\n   */\n  function flush() {\n    if (!parentAddress.call.value(this.balance)())\n      throw;\n  }\n}\n",
  "sourcePath": "/home/bitgotto/src/BitGo/eth-multisig-v2/contracts/Forwarder.sol",
  "compiler": {
    "name": "solc",
    "version": "0.4.18+commit.9cf6e910.Emscripten.clang"
  },
  "schemaVersion": "1.0.1",
  "updatedAt": "2017-11-14T17:11:41.235Z"
}